{
  "_format": "hh-sol-artifact-1",
  "contractName": "Distributor",
  "sourceName": "contracts/Distributor.sol",
  "abi": [
    {
      "inputs": [
        {
          "internalType": "address",
          "name": "_token",
          "type": "address"
        }
      ],
      "stateMutability": "nonpayable",
      "type": "constructor"
    },
    {
      "inputs": [],
      "name": "IVS3",
      "outputs": [
        {
          "internalType": "address",
          "name": "",
          "type": "address"
        }
      ],
      "stateMutability": "view",
      "type": "function"
    },
    {
      "inputs": [
        {
          "internalType": "address",
          "name": "_new",
          "type": "address"
        }
      ],
      "name": "changeIVS3TokenAddress",
      "outputs": [],
      "stateMutability": "nonpayable",
      "type": "function"
    },
    {
      "inputs": [],
      "name": "handOut",
      "outputs": [],
      "stateMutability": "nonpayable",
      "type": "function"
    }
  ],
  "bytecode": "0x608060405260008054906101000a900473ffffffffffffffffffffffffffffffffffffffff16600160006101000a81548173ffffffffffffffffffffffffffffffffffffffff021916908373ffffffffffffffffffffffffffffffffffffffff16021790555034801561007157600080fd5b5060405161095b38038061095b8339818101604052810190610093919061013c565b806000806101000a81548173ffffffffffffffffffffffffffffffffffffffff021916908373ffffffffffffffffffffffffffffffffffffffff16021790555050610169565b600080fd5b600073ffffffffffffffffffffffffffffffffffffffff82169050919050565b6000610109826100de565b9050919050565b610119816100fe565b811461012457600080fd5b50565b60008151905061013681610110565b92915050565b600060208284031215610152576101516100d9565b5b600061016084828501610127565b91505092915050565b6107e3806101786000396000f3fe608060405234801561001057600080fd5b50600436106100415760003560e01c8063a205535a14610046578063e47225bd14610064578063eb728ec014610080575b600080fd5b61004e61008a565b60405161005b91906104fd565b60405180910390f35b61007e60048036038101906100799190610549565b6100ae565b005b6100886100f1565b005b60008054906101000a900473ffffffffffffffffffffffffffffffffffffffff1681565b806000806101000a81548173ffffffffffffffffffffffffffffffffffffffff021916908373ffffffffffffffffffffffffffffffffffffffff16021790555050565b6000600160009054906101000a900473ffffffffffffffffffffffffffffffffffffffff1673ffffffffffffffffffffffffffffffffffffffff166370a08231306040518263ffffffff1660e01b815260040161014e91906104fd565b602060405180830381865afa15801561016b573d6000803e3d6000fd5b505050506040513d601f19601f8201168201806040525081019061018f91906105ac565b905060005b600160009054906101000a900473ffffffffffffffffffffffffffffffffffffffff1673ffffffffffffffffffffffffffffffffffffffff16636b4ed21b6040518163ffffffff1660e01b8152600401602060405180830381865afa158015610201573d6000803e3d6000fd5b505050506040513d601f19601f8201168201806040525081019061022591906105ac565b8110156104b8576000600160009054906101000a900473ffffffffffffffffffffffffffffffffffffffff1673ffffffffffffffffffffffffffffffffffffffff1663cb8106f4836040518263ffffffff1660e01b815260040161028991906105e8565b602060405180830381865afa1580156102a6573d6000803e3d6000fd5b505050506040513d601f19601f820116820180604052508101906102ca9190610618565b90506000600160009054906101000a900473ffffffffffffffffffffffffffffffffffffffff1673ffffffffffffffffffffffffffffffffffffffff166318160ddd6040518163ffffffff1660e01b8152600401602060405180830381865afa15801561033b573d6000803e3d6000fd5b505050506040513d601f19601f8201168201806040525081019061035f91906105ac565b84600160009054906101000a900473ffffffffffffffffffffffffffffffffffffffff1673ffffffffffffffffffffffffffffffffffffffff166370a08231856040518263ffffffff1660e01b81526004016103bb91906104fd565b602060405180830381865afa1580156103d8573d6000803e3d6000fd5b505050506040513d601f19601f820116820180604052508101906103fc91906105ac565b6104069190610674565b61041091906106fd565b9050600160009054906101000a900473ffffffffffffffffffffffffffffffffffffffff1673ffffffffffffffffffffffffffffffffffffffff166323b872dd3084846040518463ffffffff1660e01b81526004016104719392919061072e565b600060405180830381600087803b15801561048b57600080fd5b505af115801561049f573d6000803e3d6000fd5b50505050505080806104b090610765565b915050610194565b5050565b600073ffffffffffffffffffffffffffffffffffffffff82169050919050565b60006104e7826104bc565b9050919050565b6104f7816104dc565b82525050565b600060208201905061051260008301846104ee565b92915050565b600080fd5b610526816104dc565b811461053157600080fd5b50565b6000813590506105438161051d565b92915050565b60006020828403121561055f5761055e610518565b5b600061056d84828501610534565b91505092915050565b6000819050919050565b61058981610576565b811461059457600080fd5b50565b6000815190506105a681610580565b92915050565b6000602082840312156105c2576105c1610518565b5b60006105d084828501610597565b91505092915050565b6105e281610576565b82525050565b60006020820190506105fd60008301846105d9565b92915050565b6000815190506106128161051d565b92915050565b60006020828403121561062e5761062d610518565b5b600061063c84828501610603565b91505092915050565b7f4e487b7100000000000000000000000000000000000000000000000000000000600052601160045260246000fd5b600061067f82610576565b915061068a83610576565b9250817fffffffffffffffffffffffffffffffffffffffffffffffffffffffffffffffff04831182151516156106c3576106c2610645565b5b828202905092915050565b7f4e487b7100000000000000000000000000000000000000000000000000000000600052601260045260246000fd5b600061070882610576565b915061071383610576565b925082610723576107226106ce565b5b828204905092915050565b600060608201905061074360008301866104ee565b61075060208301856104ee565b61075d60408301846105d9565b949350505050565b600061077082610576565b91507fffffffffffffffffffffffffffffffffffffffffffffffffffffffffffffffff82036107a2576107a1610645565b5b60018201905091905056fea264697066735822122089655026d84666e1e47d185fa1975e6a19a76d89fbb198f08735c212bd313e7364736f6c634300080d0033",
  "linkReferences": {},
  "deployedLinkReferences": {}
}